{
  "address": "0x1D7A6780d336381176380Ff2deFB6931187D9Fd7",
  "abi": [
    {
      "inputs": [],
      "stateMutability": "nonpayable",
      "type": "constructor"
    },
    {
      "anonymous": false,
      "inputs": [
        {
          "indexed": true,
          "internalType": "address",
          "name": "owner",
          "type": "address"
        },
        {
          "indexed": true,
          "internalType": "address",
          "name": "approved",
          "type": "address"
        },
        {
          "indexed": true,
          "internalType": "uint256",
          "name": "tokenId",
          "type": "uint256"
        }
      ],
      "name": "Approval",
      "type": "event"
    },
    {
      "anonymous": false,
      "inputs": [
        {
          "indexed": true,
          "internalType": "address",
          "name": "owner",
          "type": "address"
        },
        {
          "indexed": true,
          "internalType": "address",
          "name": "operator",
          "type": "address"
        },
        {
          "indexed": false,
          "internalType": "bool",
          "name": "approved",
          "type": "bool"
        }
      ],
      "name": "ApprovalForAll",
      "type": "event"
    },
    {
      "anonymous": false,
      "inputs": [
        {
          "indexed": false,
          "internalType": "uint256",
          "name": "_fromTokenId",
          "type": "uint256"
        },
        {
          "indexed": false,
          "internalType": "uint256",
          "name": "_toTokenId",
          "type": "uint256"
        }
      ],
      "name": "BatchMetadataUpdate",
      "type": "event"
    },
    {
      "anonymous": false,
      "inputs": [
        {
          "indexed": false,
          "internalType": "uint256",
          "name": "_tokenId",
          "type": "uint256"
        }
      ],
      "name": "MetadataUpdate",
      "type": "event"
    },
    {
      "anonymous": false,
      "inputs": [
        {
          "indexed": true,
          "internalType": "address",
          "name": "from",
          "type": "address"
        },
        {
          "indexed": true,
          "internalType": "address",
          "name": "to",
          "type": "address"
        },
        {
          "indexed": true,
          "internalType": "uint256",
          "name": "tokenId",
          "type": "uint256"
        }
      ],
      "name": "Transfer",
      "type": "event"
    },
    {
      "inputs": [
        {
          "internalType": "address",
          "name": "to",
          "type": "address"
        },
        {
          "internalType": "uint256",
          "name": "tokenId",
          "type": "uint256"
        }
      ],
      "name": "approve",
      "outputs": [],
      "stateMutability": "nonpayable",
      "type": "function"
    },
    {
      "inputs": [
        {
          "internalType": "address",
          "name": "owner",
          "type": "address"
        }
      ],
      "name": "balanceOf",
      "outputs": [
        {
          "internalType": "uint256",
          "name": "",
          "type": "uint256"
        }
      ],
      "stateMutability": "view",
      "type": "function"
    },
    {
      "inputs": [
        {
          "internalType": "uint256",
          "name": "tokenId",
          "type": "uint256"
        }
      ],
      "name": "getApproved",
      "outputs": [
        {
          "internalType": "address",
          "name": "",
          "type": "address"
        }
      ],
      "stateMutability": "view",
      "type": "function"
    },
    {
      "inputs": [],
      "name": "getTokenId",
      "outputs": [
        {
          "internalType": "uint256",
          "name": "",
          "type": "uint256"
        }
      ],
      "stateMutability": "view",
      "type": "function"
    },
    {
      "inputs": [],
      "name": "getTokenUri",
      "outputs": [
        {
          "internalType": "string",
          "name": "",
          "type": "string"
        }
      ],
      "stateMutability": "pure",
      "type": "function"
    },
    {
      "inputs": [
        {
          "internalType": "address",
          "name": "owner",
          "type": "address"
        },
        {
          "internalType": "address",
          "name": "operator",
          "type": "address"
        }
      ],
      "name": "isApprovedForAll",
      "outputs": [
        {
          "internalType": "bool",
          "name": "",
          "type": "bool"
        }
      ],
      "stateMutability": "view",
      "type": "function"
    },
    {
      "inputs": [],
      "name": "name",
      "outputs": [
        {
          "internalType": "string",
          "name": "",
          "type": "string"
        }
      ],
      "stateMutability": "view",
      "type": "function"
    },
    {
      "inputs": [
        {
          "internalType": "uint256",
          "name": "tokenId",
          "type": "uint256"
        }
      ],
      "name": "ownerOf",
      "outputs": [
        {
          "internalType": "address",
          "name": "",
          "type": "address"
        }
      ],
      "stateMutability": "view",
      "type": "function"
    },
    {
      "inputs": [
        {
          "internalType": "address",
          "name": "to",
          "type": "address"
        }
      ],
      "name": "safeMint",
      "outputs": [],
      "stateMutability": "nonpayable",
      "type": "function"
    },
    {
      "inputs": [
        {
          "internalType": "address",
          "name": "from",
          "type": "address"
        },
        {
          "internalType": "address",
          "name": "to",
          "type": "address"
        },
        {
          "internalType": "uint256",
          "name": "tokenId",
          "type": "uint256"
        }
      ],
      "name": "safeTransferFrom",
      "outputs": [],
      "stateMutability": "nonpayable",
      "type": "function"
    },
    {
      "inputs": [
        {
          "internalType": "address",
          "name": "from",
          "type": "address"
        },
        {
          "internalType": "address",
          "name": "to",
          "type": "address"
        },
        {
          "internalType": "uint256",
          "name": "tokenId",
          "type": "uint256"
        },
        {
          "internalType": "bytes",
          "name": "data",
          "type": "bytes"
        }
      ],
      "name": "safeTransferFrom",
      "outputs": [],
      "stateMutability": "nonpayable",
      "type": "function"
    },
    {
      "inputs": [
        {
          "internalType": "address",
          "name": "operator",
          "type": "address"
        },
        {
          "internalType": "bool",
          "name": "approved",
          "type": "bool"
        }
      ],
      "name": "setApprovalForAll",
      "outputs": [],
      "stateMutability": "nonpayable",
      "type": "function"
    },
    {
      "inputs": [
        {
          "internalType": "bytes4",
          "name": "interfaceId",
          "type": "bytes4"
        }
      ],
      "name": "supportsInterface",
      "outputs": [
        {
          "internalType": "bool",
          "name": "",
          "type": "bool"
        }
      ],
      "stateMutability": "view",
      "type": "function"
    },
    {
      "inputs": [],
      "name": "symbol",
      "outputs": [
        {
          "internalType": "string",
          "name": "",
          "type": "string"
        }
      ],
      "stateMutability": "view",
      "type": "function"
    },
    {
      "inputs": [
        {
          "internalType": "uint256",
          "name": "index",
          "type": "uint256"
        }
      ],
      "name": "tokenByIndex",
      "outputs": [
        {
          "internalType": "uint256",
          "name": "",
          "type": "uint256"
        }
      ],
      "stateMutability": "view",
      "type": "function"
    },
    {
      "inputs": [
        {
          "internalType": "address",
          "name": "owner",
          "type": "address"
        },
        {
          "internalType": "uint256",
          "name": "index",
          "type": "uint256"
        }
      ],
      "name": "tokenOfOwnerByIndex",
      "outputs": [
        {
          "internalType": "uint256",
          "name": "",
          "type": "uint256"
        }
      ],
      "stateMutability": "view",
      "type": "function"
    },
    {
      "inputs": [
        {
          "internalType": "uint256",
          "name": "tokenId",
          "type": "uint256"
        }
      ],
      "name": "tokenURI",
      "outputs": [
        {
          "internalType": "string",
          "name": "",
          "type": "string"
        }
      ],
      "stateMutability": "view",
      "type": "function"
    },
    {
      "inputs": [],
      "name": "totalSupply",
      "outputs": [
        {
          "internalType": "uint256",
          "name": "",
          "type": "uint256"
        }
      ],
      "stateMutability": "view",
      "type": "function"
    },
    {
      "inputs": [
        {
          "internalType": "address",
          "name": "from",
          "type": "address"
        },
        {
          "internalType": "address",
          "name": "to",
          "type": "address"
        },
        {
          "internalType": "uint256",
          "name": "tokenId",
          "type": "uint256"
        }
      ],
      "name": "transferFrom",
      "outputs": [],
      "stateMutability": "nonpayable",
      "type": "function"
    }
  ],
  "transactionHash": "0xd65a4915b8a1a9a1794bcabd892877014bdf2febc9a56d6be351948259acd15a",
  "args": [],
  "numDeployments": 1,
  "solcInputHash": "8c3d96b74e4eea5e021f8778c085a565",
  "bytecode": "0x60806040523480156200001157600080fd5b506040518060400160405280600a81526020017f436f736d69634769726c000000000000000000000000000000000000000000008152506040518060400160405280600281526020017f4353000000000000000000000000000000000000000000000000000000000000815250816000908051906020019062000096929190620000b8565b508060019080519060200190620000af929190620000b8565b505050620001cd565b828054620000c69062000197565b90600052602060002090601f016020900481019282620000ea576000855562000136565b82601f106200010557805160ff191683800117855562000136565b8280016001018555821562000136579182015b828111156200013557825182559160200191906001019062000118565b5b50905062000145919062000149565b5090565b5b80821115620001645760008160009055506001016200014a565b5090565b7f4e487b7100000000000000000000000000000000000000000000000000000000600052602260045260246000fd5b60006002820490506001821680620001b057607f821691505b60208210811415620001c757620001c662000168565b5b50919050565b6132c480620001dd6000396000f3fe608060405234801561001057600080fd5b50600436106101215760003560e01c806342842e0e116100ad578063a22cb46511610071578063a22cb4651461032e578063b88d4fde1461034a578063c395c8af14610366578063c87b56dd14610384578063e985e9c5146103b457610121565b806342842e0e146102645780634f6ccce7146102805780636352211e146102b057806370a08231146102e057806395d89b411461031057610121565b8063095ea7b3116100f4578063095ea7b3146101c257806318160ddd146101de57806323b872dd146101fc5780632f745c591461021857806340d097c31461024857610121565b8063010a38f51461012657806301ffc9a71461014457806306fdde0314610174578063081812fc14610192575b600080fd5b61012e6103e4565b60405161013b9190612217565b60405180910390f35b61015e6004803603810190610159919061229e565b6103f5565b60405161016b91906122e6565b60405180910390f35b61017c610407565b604051610189919061239a565b60405180910390f35b6101ac60048036038101906101a791906123e8565b610499565b6040516101b99190612456565b60405180910390f35b6101dc60048036038101906101d7919061249d565b6104df565b005b6101e66105f7565b6040516101f39190612217565b60405180910390f35b610216600480360381019061021191906124dd565b610604565b005b610232600480360381019061022d919061249d565b610664565b60405161023f9190612217565b60405180910390f35b610262600480360381019061025d9190612530565b610709565b005b61027e600480360381019061027991906124dd565b610751565b005b61029a600480360381019061029591906123e8565b610771565b6040516102a79190612217565b60405180910390f35b6102ca60048036038101906102c591906123e8565b6107e2565b6040516102d79190612456565b60405180910390f35b6102fa60048036038101906102f59190612530565b610869565b6040516103079190612217565b60405180910390f35b610318610921565b604051610325919061239a565b60405180910390f35b61034860048036038101906103439190612589565b6109b3565b005b610364600480360381019061035f91906126fe565b6109c9565b005b61036e610a2b565b60405161037b919061239a565b60405180910390f35b61039e600480360381019061039991906123e8565b610a4b565b6040516103ab919061239a565b60405180910390f35b6103ce60048036038101906103c99190612781565b610a5d565b6040516103db91906122e6565b60405180910390f35b60006103f0600b610af1565b905090565b600061040082610aff565b9050919050565b606060008054610416906127f0565b80601f0160208091040260200160405190810160405280929190818152602001828054610442906127f0565b801561048f5780601f106104645761010080835404028352916020019161048f565b820191906000526020600020905b81548152906001019060200180831161047257829003601f168201915b5050505050905090565b60006104a482610b60565b6004600083815260200190815260200160002060009054906101000a900473ffffffffffffffffffffffffffffffffffffffff169050919050565b60006104ea826107e2565b90508073ffffffffffffffffffffffffffffffffffffffff168373ffffffffffffffffffffffffffffffffffffffff16141561055b576040517f08c379a000000000000000000000000000000000000000000000000000000000815260040161055290612894565b60405180910390fd5b8073ffffffffffffffffffffffffffffffffffffffff1661057a610bab565b73ffffffffffffffffffffffffffffffffffffffff1614806105a957506105a8816105a3610bab565b610a5d565b5b6105e8576040517f08c379a00000000000000000000000000000000000000000000000000000000081526004016105df90612926565b60405180910390fd5b6105f28383610bb3565b505050565b6000600880549050905090565b61061561060f610bab565b82610c6c565b610654576040517f08c379a000000000000000000000000000000000000000000000000000000000815260040161064b906129b8565b60405180910390fd5b61065f838383610d01565b505050565b600061066f83610869565b82106106b0576040517f08c379a00000000000000000000000000000000000000000000000000000000081526004016106a790612a4a565b60405180910390fd5b600660008473ffffffffffffffffffffffffffffffffffffffff1673ffffffffffffffffffffffffffffffffffffffff168152602001908152602001600020600083815260200190815260200160002054905092915050565b6000610715600b610af1565b9050610721600b610ffb565b61072b8282611011565b61074d8160405180608001604052806043815260200161324c6043913961102f565b5050565b61076c838383604051806020016040528060008152506109c9565b505050565b600061077b6105f7565b82106107bc576040517f08c379a00000000000000000000000000000000000000000000000000000000081526004016107b390612adc565b60405180910390fd5b600882815481106107d0576107cf612afc565b5b90600052602060002001549050919050565b6000806107ee836110da565b9050600073ffffffffffffffffffffffffffffffffffffffff168173ffffffffffffffffffffffffffffffffffffffff161415610860576040517f08c379a000000000000000000000000000000000000000000000000000000000815260040161085790612b77565b60405180910390fd5b80915050919050565b60008073ffffffffffffffffffffffffffffffffffffffff168273ffffffffffffffffffffffffffffffffffffffff1614156108da576040517f08c379a00000000000000000000000000000000000000000000000000000000081526004016108d190612c09565b60405180910390fd5b600360008373ffffffffffffffffffffffffffffffffffffffff1673ffffffffffffffffffffffffffffffffffffffff168152602001908152602001600020549050919050565b606060018054610930906127f0565b80601f016020809104026020016040519081016040528092919081815260200182805461095c906127f0565b80156109a95780601f1061097e576101008083540402835291602001916109a9565b820191906000526020600020905b81548152906001019060200180831161098c57829003601f168201915b5050505050905090565b6109c56109be610bab565b8383611117565b5050565b6109da6109d4610bab565b83610c6c565b610a19576040517f08c379a0000000000000000000000000000000000000000000000000000000008152600401610a10906129b8565b60405180910390fd5b610a2584848484611284565b50505050565b606060405180608001604052806043815260200161324c60439139905090565b6060610a56826112e0565b9050919050565b6000600560008473ffffffffffffffffffffffffffffffffffffffff1673ffffffffffffffffffffffffffffffffffffffff16815260200190815260200160002060008373ffffffffffffffffffffffffffffffffffffffff1673ffffffffffffffffffffffffffffffffffffffff16815260200190815260200160002060009054906101000a900460ff16905092915050565b600081600001549050919050565b6000634906490660e01b7bffffffffffffffffffffffffffffffffffffffffffffffffffffffff1916827bffffffffffffffffffffffffffffffffffffffffffffffffffffffff19161480610b595750610b58826113f3565b5b9050919050565b610b698161146d565b610ba8576040517f08c379a0000000000000000000000000000000000000000000000000000000008152600401610b9f90612b77565b60405180910390fd5b50565b600033905090565b816004600083815260200190815260200160002060006101000a81548173ffffffffffffffffffffffffffffffffffffffff021916908373ffffffffffffffffffffffffffffffffffffffff160217905550808273ffffffffffffffffffffffffffffffffffffffff16610c26836107e2565b73ffffffffffffffffffffffffffffffffffffffff167f8c5be1e5ebec7d5bd14f71427d1e84f3dd0314c0f7b2291e5b200ac8c7c3b92560405160405180910390a45050565b600080610c78836107e2565b90508073ffffffffffffffffffffffffffffffffffffffff168473ffffffffffffffffffffffffffffffffffffffff161480610cba5750610cb98185610a5d565b5b80610cf857508373ffffffffffffffffffffffffffffffffffffffff16610ce084610499565b73ffffffffffffffffffffffffffffffffffffffff16145b91505092915050565b8273ffffffffffffffffffffffffffffffffffffffff16610d21826107e2565b73ffffffffffffffffffffffffffffffffffffffff1614610d77576040517f08c379a0000000000000000000000000000000000000000000000000000000008152600401610d6e90612c9b565b60405180910390fd5b600073ffffffffffffffffffffffffffffffffffffffff168273ffffffffffffffffffffffffffffffffffffffff161415610de7576040517f08c379a0000000000000000000000000000000000000000000000000000000008152600401610dde90612d2d565b60405180910390fd5b610df483838360016114ae565b8273ffffffffffffffffffffffffffffffffffffffff16610e14826107e2565b73ffffffffffffffffffffffffffffffffffffffff1614610e6a576040517f08c379a0000000000000000000000000000000000000000000000000000000008152600401610e6190612c9b565b60405180910390fd5b6004600082815260200190815260200160002060006101000a81549073ffffffffffffffffffffffffffffffffffffffff02191690556001600360008573ffffffffffffffffffffffffffffffffffffffff1673ffffffffffffffffffffffffffffffffffffffff168152602001908152602001600020600082825403925050819055506001600360008473ffffffffffffffffffffffffffffffffffffffff1673ffffffffffffffffffffffffffffffffffffffff16815260200190815260200160002060008282540192505081905550816002600083815260200190815260200160002060006101000a81548173ffffffffffffffffffffffffffffffffffffffff021916908373ffffffffffffffffffffffffffffffffffffffff160217905550808273ffffffffffffffffffffffffffffffffffffffff168473ffffffffffffffffffffffffffffffffffffffff167fddf252ad1be2c89b69c2b068fc378daa952ba7f163c4a11628f55a4df523b3ef60405160405180910390a4610ff683838360016114c0565b505050565b6001816000016000828254019250508190555050565b61102b8282604051806020016040528060008152506114c6565b5050565b6110388261146d565b611077576040517f08c379a000000000000000000000000000000000000000000000000000000000815260040161106e90612dbf565b60405180910390fd5b80600a6000848152602001908152602001600020908051906020019061109e92919061215b565b507ff8e1a15aba9398e019f0b49df1a4fde98ee17ae345cb5f6b5e2c27f5033e8ce7826040516110ce9190612217565b60405180910390a15050565b60006002600083815260200190815260200160002060009054906101000a900473ffffffffffffffffffffffffffffffffffffffff169050919050565b8173ffffffffffffffffffffffffffffffffffffffff168373ffffffffffffffffffffffffffffffffffffffff161415611186576040517f08c379a000000000000000000000000000000000000000000000000000000000815260040161117d90612e2b565b60405180910390fd5b80600560008573ffffffffffffffffffffffffffffffffffffffff1673ffffffffffffffffffffffffffffffffffffffff16815260200190815260200160002060008473ffffffffffffffffffffffffffffffffffffffff1673ffffffffffffffffffffffffffffffffffffffff16815260200190815260200160002060006101000a81548160ff0219169083151502179055508173ffffffffffffffffffffffffffffffffffffffff168373ffffffffffffffffffffffffffffffffffffffff167f17307eab39ab6107e8899845ad3d59bd9653f200f220920489ca2b5937696c318360405161127791906122e6565b60405180910390a3505050565b61128f848484610d01565b61129b84848484611521565b6112da576040517f08c379a00000000000000000000000000000000000000000000000000000000081526004016112d190612ebd565b60405180910390fd5b50505050565b60606112eb82610b60565b6000600a6000848152602001908152602001600020805461130b906127f0565b80601f0160208091040260200160405190810160405280929190818152602001828054611337906127f0565b80156113845780601f1061135957610100808354040283529160200191611384565b820191906000526020600020905b81548152906001019060200180831161136757829003601f168201915b5050505050905060006113956116b8565b90506000815114156113ab5781925050506113ee565b6000825111156113e05780826040516020016113c8929190612f19565b604051602081830303815290604052925050506113ee565b6113e9846116cf565b925050505b919050565b60007f780e9d63000000000000000000000000000000000000000000000000000000007bffffffffffffffffffffffffffffffffffffffffffffffffffffffff1916827bffffffffffffffffffffffffffffffffffffffffffffffffffffffff19161480611466575061146582611737565b5b9050919050565b60008073ffffffffffffffffffffffffffffffffffffffff1661148f836110da565b73ffffffffffffffffffffffffffffffffffffffff1614159050919050565b6114ba84848484611819565b50505050565b50505050565b6114d08383611979565b6114dd6000848484611521565b61151c576040517f08c379a000000000000000000000000000000000000000000000000000000000815260040161151390612ebd565b60405180910390fd5b505050565b60006115428473ffffffffffffffffffffffffffffffffffffffff16611b97565b156116ab578373ffffffffffffffffffffffffffffffffffffffff1663150b7a0261156b610bab565b8786866040518563ffffffff1660e01b815260040161158d9493929190612f92565b602060405180830381600087803b1580156115a757600080fd5b505af19250505080156115d857506040513d601f19601f820116820180604052508101906115d59190612ff3565b60015b61165b573d8060008114611608576040519150601f19603f3d011682016040523d82523d6000602084013e61160d565b606091505b50600081511415611653576040517f08c379a000000000000000000000000000000000000000000000000000000000815260040161164a90612ebd565b60405180910390fd5b805181602001fd5b63150b7a0260e01b7bffffffffffffffffffffffffffffffffffffffffffffffffffffffff1916817bffffffffffffffffffffffffffffffffffffffffffffffffffffffff1916149150506116b0565b600190505b949350505050565b606060405180602001604052806000815250905090565b60606116da82610b60565b60006116e46116b8565b90506000815111611704576040518060200160405280600081525061172f565b8061170e84611bba565b60405160200161171f929190612f19565b6040516020818303038152906040525b915050919050565b60007f80ac58cd000000000000000000000000000000000000000000000000000000007bffffffffffffffffffffffffffffffffffffffffffffffffffffffff1916827bffffffffffffffffffffffffffffffffffffffffffffffffffffffff1916148061180257507f5b5e139f000000000000000000000000000000000000000000000000000000007bffffffffffffffffffffffffffffffffffffffffffffffffffffffff1916827bffffffffffffffffffffffffffffffffffffffffffffffffffffffff1916145b80611812575061181182611c92565b5b9050919050565b61182584848484611cfc565b6001811115611869576040517f08c379a000000000000000000000000000000000000000000000000000000000815260040161186090613092565b60405180910390fd5b6000829050600073ffffffffffffffffffffffffffffffffffffffff168573ffffffffffffffffffffffffffffffffffffffff1614156118b1576118ac81611d02565b6118f0565b8373ffffffffffffffffffffffffffffffffffffffff168573ffffffffffffffffffffffffffffffffffffffff16146118ef576118ee8582611d4b565b5b5b600073ffffffffffffffffffffffffffffffffffffffff168473ffffffffffffffffffffffffffffffffffffffff1614156119335761192e81611eb8565b611972565b8473ffffffffffffffffffffffffffffffffffffffff168473ffffffffffffffffffffffffffffffffffffffff1614611971576119708482611f89565b5b5b5050505050565b600073ffffffffffffffffffffffffffffffffffffffff168273ffffffffffffffffffffffffffffffffffffffff1614156119e9576040517f08c379a00000000000000000000000000000000000000000000000000000000081526004016119e0906130fe565b60405180910390fd5b6119f28161146d565b15611a32576040517f08c379a0000000000000000000000000000000000000000000000000000000008152600401611a299061316a565b60405180910390fd5b611a406000838360016114ae565b611a498161146d565b15611a89576040517f08c379a0000000000000000000000000000000000000000000000000000000008152600401611a809061316a565b60405180910390fd5b6001600360008473ffffffffffffffffffffffffffffffffffffffff1673ffffffffffffffffffffffffffffffffffffffff16815260200190815260200160002060008282540192505081905550816002600083815260200190815260200160002060006101000a81548173ffffffffffffffffffffffffffffffffffffffff021916908373ffffffffffffffffffffffffffffffffffffffff160217905550808273ffffffffffffffffffffffffffffffffffffffff16600073ffffffffffffffffffffffffffffffffffffffff167fddf252ad1be2c89b69c2b068fc378daa952ba7f163c4a11628f55a4df523b3ef60405160405180910390a4611b936000838360016114c0565b5050565b6000808273ffffffffffffffffffffffffffffffffffffffff163b119050919050565b606060006001611bc984612008565b01905060008167ffffffffffffffff811115611be857611be76125d3565b5b6040519080825280601f01601f191660200182016040528015611c1a5781602001600182028036833780820191505090505b509050600082602001820190505b600115611c87578080600190039150507f3031323334353637383961626364656600000000000000000000000000000000600a86061a8153600a8581611c7157611c7061318a565b5b0494506000851415611c8257611c87565b611c28565b819350505050919050565b60007f01ffc9a7000000000000000000000000000000000000000000000000000000007bffffffffffffffffffffffffffffffffffffffffffffffffffffffff1916827bffffffffffffffffffffffffffffffffffffffffffffffffffffffff1916149050919050565b50505050565b6008805490506009600083815260200190815260200160002081905550600881908060018154018082558091505060019003906000526020600020016000909190919091505550565b60006001611d5884610869565b611d6291906131e8565b9050600060076000848152602001908152602001600020549050818114611e47576000600660008673ffffffffffffffffffffffffffffffffffffffff1673ffffffffffffffffffffffffffffffffffffffff168152602001908152602001600020600084815260200190815260200160002054905080600660008773ffffffffffffffffffffffffffffffffffffffff1673ffffffffffffffffffffffffffffffffffffffff168152602001908152602001600020600084815260200190815260200160002081905550816007600083815260200190815260200160002081905550505b6007600084815260200190815260200160002060009055600660008573ffffffffffffffffffffffffffffffffffffffff1673ffffffffffffffffffffffffffffffffffffffff16815260200190815260200160002060008381526020019081526020016000206000905550505050565b60006001600880549050611ecc91906131e8565b9050600060096000848152602001908152602001600020549050600060088381548110611efc57611efb612afc565b5b906000526020600020015490508060088381548110611f1e57611f1d612afc565b5b906000526020600020018190555081600960008381526020019081526020016000208190555060096000858152602001908152602001600020600090556008805480611f6d57611f6c61321c565b5b6001900381819060005260206000200160009055905550505050565b6000611f9483610869565b905081600660008573ffffffffffffffffffffffffffffffffffffffff1673ffffffffffffffffffffffffffffffffffffffff168152602001908152602001600020600083815260200190815260200160002081905550806007600084815260200190815260200160002081905550505050565b600080600090507a184f03e93ff9f4daa797ed6e38ed64bf6a1f0100000000000000008310612066577a184f03e93ff9f4daa797ed6e38ed64bf6a1f010000000000000000838161205c5761205b61318a565b5b0492506040810190505b6d04ee2d6d415b85acef810000000083106120a3576d04ee2d6d415b85acef810000000083816120995761209861318a565b5b0492506020810190505b662386f26fc1000083106120d257662386f26fc1000083816120c8576120c761318a565b5b0492506010810190505b6305f5e10083106120fb576305f5e10083816120f1576120f061318a565b5b0492506008810190505b61271083106121205761271083816121165761211561318a565b5b0492506004810190505b6064831061214357606483816121395761213861318a565b5b0492506002810190505b600a8310612152576001810190505b80915050919050565b828054612167906127f0565b90600052602060002090601f01602090048101928261218957600085556121d0565b82601f106121a257805160ff19168380011785556121d0565b828001600101855582156121d0579182015b828111156121cf5782518255916020019190600101906121b4565b5b5090506121dd91906121e1565b5090565b5b808211156121fa5760008160009055506001016121e2565b5090565b6000819050919050565b612211816121fe565b82525050565b600060208201905061222c6000830184612208565b92915050565b6000604051905090565b600080fd5b600080fd5b60007fffffffff0000000000000000000000000000000000000000000000000000000082169050919050565b61227b81612246565b811461228657600080fd5b50565b60008135905061229881612272565b92915050565b6000602082840312156122b4576122b361223c565b5b60006122c284828501612289565b91505092915050565b60008115159050919050565b6122e0816122cb565b82525050565b60006020820190506122fb60008301846122d7565b92915050565b600081519050919050565b600082825260208201905092915050565b60005b8381101561233b578082015181840152602081019050612320565b8381111561234a576000848401525b50505050565b6000601f19601f8301169050919050565b600061236c82612301565b612376818561230c565b935061238681856020860161231d565b61238f81612350565b840191505092915050565b600060208201905081810360008301526123b48184612361565b905092915050565b6123c5816121fe565b81146123d057600080fd5b50565b6000813590506123e2816123bc565b92915050565b6000602082840312156123fe576123fd61223c565b5b600061240c848285016123d3565b91505092915050565b600073ffffffffffffffffffffffffffffffffffffffff82169050919050565b600061244082612415565b9050919050565b61245081612435565b82525050565b600060208201905061246b6000830184612447565b92915050565b61247a81612435565b811461248557600080fd5b50565b60008135905061249781612471565b92915050565b600080604083850312156124b4576124b361223c565b5b60006124c285828601612488565b92505060206124d3858286016123d3565b9150509250929050565b6000806000606084860312156124f6576124f561223c565b5b600061250486828701612488565b935050602061251586828701612488565b9250506040612526868287016123d3565b9150509250925092565b6000602082840312156125465761254561223c565b5b600061255484828501612488565b91505092915050565b612566816122cb565b811461257157600080fd5b50565b6000813590506125838161255d565b92915050565b600080604083850312156125a05761259f61223c565b5b60006125ae85828601612488565b92505060206125bf85828601612574565b9150509250929050565b600080fd5b600080fd5b7f4e487b7100000000000000000000000000000000000000000000000000000000600052604160045260246000fd5b61260b82612350565b810181811067ffffffffffffffff8211171561262a576126296125d3565b5b80604052505050565b600061263d612232565b90506126498282612602565b919050565b600067ffffffffffffffff821115612669576126686125d3565b5b61267282612350565b9050602081019050919050565b82818337600083830152505050565b60006126a161269c8461264e565b612633565b9050828152602081018484840111156126bd576126bc6125ce565b5b6126c884828561267f565b509392505050565b600082601f8301126126e5576126e46125c9565b5b81356126f584826020860161268e565b91505092915050565b600080600080608085870312156127185761271761223c565b5b600061272687828801612488565b945050602061273787828801612488565b9350506040612748878288016123d3565b925050606085013567ffffffffffffffff81111561276957612768612241565b5b612775878288016126d0565b91505092959194509250565b600080604083850312156127985761279761223c565b5b60006127a685828601612488565b92505060206127b785828601612488565b9150509250929050565b7f4e487b7100000000000000000000000000000000000000000000000000000000600052602260045260246000fd5b6000600282049050600182168061280857607f821691505b6020821081141561281c5761281b6127c1565b5b50919050565b7f4552433732313a20617070726f76616c20746f2063757272656e74206f776e6560008201527f7200000000000000000000000000000000000000000000000000000000000000602082015250565b600061287e60218361230c565b915061288982612822565b604082019050919050565b600060208201905081810360008301526128ad81612871565b9050919050565b7f4552433732313a20617070726f76652063616c6c6572206973206e6f7420746f60008201527f6b656e206f776e6572206f7220617070726f76656420666f7220616c6c000000602082015250565b6000612910603d8361230c565b915061291b826128b4565b604082019050919050565b6000602082019050818103600083015261293f81612903565b9050919050565b7f4552433732313a2063616c6c6572206973206e6f7420746f6b656e206f776e6560008201527f72206f7220617070726f76656400000000000000000000000000000000000000602082015250565b60006129a2602d8361230c565b91506129ad82612946565b604082019050919050565b600060208201905081810360008301526129d181612995565b9050919050565b7f455243373231456e756d657261626c653a206f776e657220696e646578206f7560008201527f74206f6620626f756e6473000000000000000000000000000000000000000000602082015250565b6000612a34602b8361230c565b9150612a3f826129d8565b604082019050919050565b60006020820190508181036000830152612a6381612a27565b9050919050565b7f455243373231456e756d657261626c653a20676c6f62616c20696e646578206f60008201527f7574206f6620626f756e64730000000000000000000000000000000000000000602082015250565b6000612ac6602c8361230c565b9150612ad182612a6a565b604082019050919050565b60006020820190508181036000830152612af581612ab9565b9050919050565b7f4e487b7100000000000000000000000000000000000000000000000000000000600052603260045260246000fd5b7f4552433732313a20696e76616c696420746f6b656e2049440000000000000000600082015250565b6000612b6160188361230c565b9150612b6c82612b2b565b602082019050919050565b60006020820190508181036000830152612b9081612b54565b9050919050565b7f4552433732313a2061646472657373207a65726f206973206e6f74206120766160008201527f6c6964206f776e65720000000000000000000000000000000000000000000000602082015250565b6000612bf360298361230c565b9150612bfe82612b97565b604082019050919050565b60006020820190508181036000830152612c2281612be6565b9050919050565b7f4552433732313a207472616e736665722066726f6d20696e636f72726563742060008201527f6f776e6572000000000000000000000000000000000000000000000000000000602082015250565b6000612c8560258361230c565b9150612c9082612c29565b604082019050919050565b60006020820190508181036000830152612cb481612c78565b9050919050565b7f4552433732313a207472616e7366657220746f20746865207a65726f2061646460008201527f7265737300000000000000000000000000000000000000000000000000000000602082015250565b6000612d1760248361230c565b9150612d2282612cbb565b604082019050919050565b60006020820190508181036000830152612d4681612d0a565b9050919050565b7f45524337323155524953746f726167653a2055524920736574206f66206e6f6e60008201527f6578697374656e7420746f6b656e000000000000000000000000000000000000602082015250565b6000612da9602e8361230c565b9150612db482612d4d565b604082019050919050565b60006020820190508181036000830152612dd881612d9c565b9050919050565b7f4552433732313a20617070726f766520746f2063616c6c657200000000000000600082015250565b6000612e1560198361230c565b9150612e2082612ddf565b602082019050919050565b60006020820190508181036000830152612e4481612e08565b9050919050565b7f4552433732313a207472616e7366657220746f206e6f6e20455243373231526560008201527f63656976657220696d706c656d656e7465720000000000000000000000000000602082015250565b6000612ea760328361230c565b9150612eb282612e4b565b604082019050919050565b60006020820190508181036000830152612ed681612e9a565b9050919050565b600081905092915050565b6000612ef382612301565b612efd8185612edd565b9350612f0d81856020860161231d565b80840191505092915050565b6000612f258285612ee8565b9150612f318284612ee8565b91508190509392505050565b600081519050919050565b600082825260208201905092915050565b6000612f6482612f3d565b612f6e8185612f48565b9350612f7e81856020860161231d565b612f8781612350565b840191505092915050565b6000608082019050612fa76000830187612447565b612fb46020830186612447565b612fc16040830185612208565b8181036060830152612fd38184612f59565b905095945050505050565b600081519050612fed81612272565b92915050565b6000602082840312156130095761300861223c565b5b600061301784828501612fde565b91505092915050565b7f455243373231456e756d657261626c653a20636f6e736563757469766520747260008201527f616e7366657273206e6f7420737570706f727465640000000000000000000000602082015250565b600061307c60358361230c565b915061308782613020565b604082019050919050565b600060208201905081810360008301526130ab8161306f565b9050919050565b7f4552433732313a206d696e7420746f20746865207a65726f2061646472657373600082015250565b60006130e860208361230c565b91506130f3826130b2565b602082019050919050565b60006020820190508181036000830152613117816130db565b9050919050565b7f4552433732313a20746f6b656e20616c7265616479206d696e74656400000000600082015250565b6000613154601c8361230c565b915061315f8261311e565b602082019050919050565b6000602082019050818103600083015261318381613147565b9050919050565b7f4e487b7100000000000000000000000000000000000000000000000000000000600052601260045260246000fd5b7f4e487b7100000000000000000000000000000000000000000000000000000000600052601160045260246000fd5b60006131f3826121fe565b91506131fe836121fe565b925082821015613211576132106131b9565b5b828203905092915050565b7f4e487b7100000000000000000000000000000000000000000000000000000000600052603160045260246000fdfe68747470733a2f2f697066732e696f2f697066732f516d613272644a374a786d53626e337479644672553237457239654a506554594e486b31396d4669463946654476a264697066735822122031b7188eacc9c0f5401906a7ad2dba5d0250a5567e6ffa4ea074d8e2a3b38f4064736f6c63430008090033",
  "devdoc": {
    "kind": "dev",
    "methods": {
      "approve(address,uint256)": {
        "details": "See {IERC721-approve}."
      },
      "balanceOf(address)": {
        "details": "See {IERC721-balanceOf}."
      },
      "getApproved(uint256)": {
        "details": "See {IERC721-getApproved}."
      },
      "isApprovedForAll(address,address)": {
        "details": "See {IERC721-isApprovedForAll}."
      },
      "name()": {
        "details": "See {IERC721Metadata-name}."
      },
      "ownerOf(uint256)": {
        "details": "See {IERC721-ownerOf}."
      },
      "safeTransferFrom(address,address,uint256)": {
        "details": "See {IERC721-safeTransferFrom}."
      },
      "safeTransferFrom(address,address,uint256,bytes)": {
        "details": "See {IERC721-safeTransferFrom}."
      },
      "setApprovalForAll(address,bool)": {
        "details": "See {IERC721-setApprovalForAll}."
      },
      "symbol()": {
        "details": "See {IERC721Metadata-symbol}."
      },
      "tokenByIndex(uint256)": {
        "details": "See {IERC721Enumerable-tokenByIndex}."
      },
      "tokenOfOwnerByIndex(address,uint256)": {
        "details": "See {IERC721Enumerable-tokenOfOwnerByIndex}."
      },
      "totalSupply()": {
        "details": "See {IERC721Enumerable-totalSupply}."
      },
      "transferFrom(address,address,uint256)": {
        "details": "See {IERC721-transferFrom}."
      }
    },
    "version": 1
  },
  "userdoc": {
    "kind": "user",
    "methods": {},
    "version": 1
  },
  "storageLayout": {
    "storage": [
      {
        "astId": 53,
        "contract": "contracts/CosmicGirl.sol:CosmicGirl",
        "label": "_name",
        "offset": 0,
        "slot": "0",
        "type": "t_string_storage"
      },
      {
        "astId": 55,
        "contract": "contracts/CosmicGirl.sol:CosmicGirl",
        "label": "_symbol",
        "offset": 0,
        "slot": "1",
        "type": "t_string_storage"
      },
      {
        "astId": 59,
        "contract": "contracts/CosmicGirl.sol:CosmicGirl",
        "label": "_owners",
        "offset": 0,
        "slot": "2",
        "type": "t_mapping(t_uint256,t_address)"
      },
      {
        "astId": 63,
        "contract": "contracts/CosmicGirl.sol:CosmicGirl",
        "label": "_balances",
        "offset": 0,
        "slot": "3",
        "type": "t_mapping(t_address,t_uint256)"
      },
      {
        "astId": 67,
        "contract": "contracts/CosmicGirl.sol:CosmicGirl",
        "label": "_tokenApprovals",
        "offset": 0,
        "slot": "4",
        "type": "t_mapping(t_uint256,t_address)"
      },
      {
        "astId": 73,
        "contract": "contracts/CosmicGirl.sol:CosmicGirl",
        "label": "_operatorApprovals",
        "offset": 0,
        "slot": "5",
        "type": "t_mapping(t_address,t_mapping(t_address,t_bool))"
      },
      {
        "astId": 1103,
        "contract": "contracts/CosmicGirl.sol:CosmicGirl",
        "label": "_ownedTokens",
        "offset": 0,
        "slot": "6",
        "type": "t_mapping(t_address,t_mapping(t_uint256,t_uint256))"
      },
      {
        "astId": 1107,
        "contract": "contracts/CosmicGirl.sol:CosmicGirl",
        "label": "_ownedTokensIndex",
        "offset": 0,
        "slot": "7",
        "type": "t_mapping(t_uint256,t_uint256)"
      },
      {
        "astId": 1110,
        "contract": "contracts/CosmicGirl.sol:CosmicGirl",
        "label": "_allTokens",
        "offset": 0,
        "slot": "8",
        "type": "t_array(t_uint256)dyn_storage"
      },
      {
        "astId": 1114,
        "contract": "contracts/CosmicGirl.sol:CosmicGirl",
        "label": "_allTokensIndex",
        "offset": 0,
        "slot": "9",
        "type": "t_mapping(t_uint256,t_uint256)"
      },
      {
        "astId": 1458,
        "contract": "contracts/CosmicGirl.sol:CosmicGirl",
        "label": "_tokenURIs",
        "offset": 0,
        "slot": "10",
        "type": "t_mapping(t_uint256,t_string_storage)"
      },
      {
        "astId": 3337,
        "contract": "contracts/CosmicGirl.sol:CosmicGirl",
        "label": "_tokenIdCounter",
        "offset": 0,
        "slot": "11",
        "type": "t_struct(Counter)2014_storage"
      }
    ],
    "types": {
      "t_address": {
        "encoding": "inplace",
        "label": "address",
        "numberOfBytes": "20"
      },
      "t_array(t_uint256)dyn_storage": {
        "base": "t_uint256",
        "encoding": "dynamic_array",
        "label": "uint256[]",
        "numberOfBytes": "32"
      },
      "t_bool": {
        "encoding": "inplace",
        "label": "bool",
        "numberOfBytes": "1"
      },
      "t_mapping(t_address,t_bool)": {
        "encoding": "mapping",
        "key": "t_address",
        "label": "mapping(address => bool)",
        "numberOfBytes": "32",
        "value": "t_bool"
      },
      "t_mapping(t_address,t_mapping(t_address,t_bool))": {
        "encoding": "mapping",
        "key": "t_address",
        "label": "mapping(address => mapping(address => bool))",
        "numberOfBytes": "32",
        "value": "t_mapping(t_address,t_bool)"
      },
      "t_mapping(t_address,t_mapping(t_uint256,t_uint256))": {
        "encoding": "mapping",
        "key": "t_address",
        "label": "mapping(address => mapping(uint256 => uint256))",
        "numberOfBytes": "32",
        "value": "t_mapping(t_uint256,t_uint256)"
      },
      "t_mapping(t_address,t_uint256)": {
        "encoding": "mapping",
        "key": "t_address",
        "label": "mapping(address => uint256)",
        "numberOfBytes": "32",
        "value": "t_uint256"
      },
      "t_mapping(t_uint256,t_address)": {
        "encoding": "mapping",
        "key": "t_uint256",
        "label": "mapping(uint256 => address)",
        "numberOfBytes": "32",
        "value": "t_address"
      },
      "t_mapping(t_uint256,t_string_storage)": {
        "encoding": "mapping",
        "key": "t_uint256",
        "label": "mapping(uint256 => string)",
        "numberOfBytes": "32",
        "value": "t_string_storage"
      },
      "t_mapping(t_uint256,t_uint256)": {
        "encoding": "mapping",
        "key": "t_uint256",
        "label": "mapping(uint256 => uint256)",
        "numberOfBytes": "32",
        "value": "t_uint256"
      },
      "t_string_storage": {
        "encoding": "bytes",
        "label": "string",
        "numberOfBytes": "32"
      },
      "t_struct(Counter)2014_storage": {
        "encoding": "inplace",
        "label": "struct Counters.Counter",
        "members": [
          {
            "astId": 2013,
            "contract": "contracts/CosmicGirl.sol:CosmicGirl",
            "label": "_value",
            "offset": 0,
            "slot": "0",
            "type": "t_uint256"
          }
        ],
        "numberOfBytes": "32"
      },
      "t_uint256": {
        "encoding": "inplace",
        "label": "uint256",
        "numberOfBytes": "32"
      }
    }
  }
}